S00C0000693263312E73726563E9
S1130000D9C00000F5C00000F3C00000F1C000003A
S1130010EFC00000EDC00000EBC00000E9C000002C
S1130020E7C00000E5C00000E3C00000E1C000003C
S1130030DFC00000DDC00000DBC00000D9C000004C
S1130040D7C00000D5C00000D3C00000D1C000005C
S1130050CFC00000CDC00000CBC00000C9C000006C
S1130060C7C00000C5C00000C3C00000C1C000007C
S1130070BFC00000BDC00000BBC00000B9C000008C
S1130080B7C00000B5C00000B3C00000084AD73BA9
S11300903BCE016E84BCBFFDC12F3D6C74319ABD53
S11300A056833DDA3D00C77F11BED9E4BB4C3E9177
S11300B06BAAAABE000000803F0000407A10F35AE9
S11300C000A0724E18090010A5D4E80000E8764894
S11300D0170000E40B54020000CA9A3B000000E140
S11300E0F505000080969800000040420F000000D3
S11300F0A08601000000102700000000E8030000B3
S113010000006400000000000A000000000001007C
S1130110000000002C76D888DC674F0823DFC1DF9D
S1130120AE59E1B1B796E5E3E453C63AE6519976A0
S113013096E8E6C28426EB898C9B62ED407C6FFCDA
S1130140EFBC9C9F40F2BAA56FA5F490055A2AF71C
S11301505C936B6CF9676DC11BFCE0E40D47FEF525
S113016020E6B500D0ED902E03009435770500808D
S1130170841E080000204E0A000000C80C333333EC
S1130180330F986E12831141EF8D2114893BE6558C
S113019016CFFEE6DB18D1844B381BF77C1D901D6F
S11301A0A4BBE424203284725E228100C9F124ECD1
S11301B0A1E53D2711241FBECFEFD0E1DEBFCDBFA7
S11301C011E0A0E0B1E0ECECF8E100E00BBF02C00C
S11301D007900D92A633B107D9F721E0A6E3B1E069
S11301E001C01D92A235B207E1F7BCD10C94640C96
S11301F007CFA0E7B0E01C92E1E7F0E01082808135
S11302008E7F808380818D7F8083E4E7F0E080812E
S11302108E7F808380E28C93089594EA9093740097
S1130220E4E7F0E090819923ECF790917100987FD6
S1130230903199F48093730084E880937400E4E728
S1130240F0E080818823ECF780917100887F80340E
S113025031F0803231F083E0089580E0089581E048
S1130260089582E0089584E980937400E4E7F0E05F
S1130270808184FDFDCF0895BF92CF92DF92EF92EB
S1130280FF920F931F93CF93DF93B82EC4E7D0E070
S11302900F2EF4EADF2EF02D01E710E00F2EF3E726
S11302A0EF2EF12CF02D0F2EF4E8CF2EF02DD88266
S11302B088818823ECF7F8018081887F8830B9F73A
S11302C0F701B082C88288818823ECF7F801808125
S11302D0887F883111F0C7DFEACFDF91CF911F917A
S11302E00F91FF90EF90DF90CF90BF90089580938F
S11302F0730084E880937400E4E7F0E0808188234D
S1130300ECF780917100887F883221F0803321F0EE
S113031082E0089580E0089581E008952FE789EA56
S113032093E0215080409040E1F700C0000080ED50
S1130330A3DF89E1DCDF87E0DADF95DF80ED9CDF96
S11303408BE6D5DF81E0D3DF8EDF80ED95DF8AE1B8
S1130350CEDF80E0CCDF87DF80ED8EDF8BE1C7DF8F
S113036088E1C5DF80DF80ED87DF88E3C0DF81E0DF
S1130370BEDF79CF089580ED7FDF8BE3B8DF81EDB9
S11303804CCF089584EC80937400E4E7F0E080811E
S11303908823ECF780917300089584E880937400B7
S11303A0E4E7F0E080818823ECF7809173000895FE
S11303B0CF93E1DFE7DFC82FE5DF6C2F70E0762F06
S11303C06627682B072E000C880B990BF5D36093D6
S11303D04A0170934B0180934C0190934D01D2DFFD
S11303E0C82FD0DF6C2F70E0762F6627682B072E7E
S11303F0000C880B990BE0D3609342017093430186
S11304008093440190934501BDDFC82FBBDF6C2F5F
S113041070E0762F6627682B072E000C880B990B4B
S1130420CBD3609336017093370180933801909356
S11304303901A8DFC82FA6DF6C2F70E0762F66275E
S1130440682B072E000C880B990BB6D360933E01E2
S113045070933F01809340019093410193DFC82F33
S113046091DF6C2F70E0762F6627682B072E000C27
S1130470880B990BA1D360933A0170933B0180934D
S11304803C0190933D017EDFC82F7CDF6C2F70E030
S1130490762F6627682B072E000C880B990B8CD3BC
S11304A060934E0170934F018093500190935101DA
S11304B069DFC82F72DF6C2F70E0762F6627682BF8
S11304C0072E000C880B990B77D360934601709329
S11304D047018093480190934901C5DECF91089567
S11304E02AB128612AB9E5E9F0E020812660208359
S11304F0DC01CB01880F991FAA1FBB1F880F991F0E
S1130500AA1FBB1F9C01AD01220F331F441F551F9F
S1130510220F331F441F551F60E072E18AE790E009
S113052069D48FEF820F89B9DA01C9010197A10952
S1130530B109892F9A2FAB2FBB2780939000089580
S11305408CB95D9BFECF0895CF93DF93EC01888136
S1130550882329F02196F4DF89918111FCCFDF9162
S1130560CF910895CF93DF93CDB7DEB7EE970FB653
S1130570F894DEBF0FBECDBF3CDED0DE60E875E28E
S113058080E090E0ADDF1BA21CA21DA21EA21BA650
S11305901CA61DA61EA61F8E18A219A21AA21E0111
S11305A025E1220E311C0F2EF0E0CF2EF1E0DF2EDC
S11305B0F02DCE0101967C01FBDE20E030E040E826
S11305C058E360914A0170914B0180914C019091E4
S11305D04D01AAD360934A0170934B0180934C015F
S11305E090934D019FEFA0E7B2E09150A040B0403E
S11305F0E1F700C0000020E030E040E858E36091FB
S113060042017091430180914401909145018CD342
S11306106093420170934301809344019093450198
S11306202FEF80E792E0215080409040E1F700C036
S1130630000020E030E040E858E36091360170911A
S1130640370180913801909139016ED3609336015E
S1130650709337018093380190933901AFEFB0E77D
S113066022E0A150B0402040E1F700C0000023E3A5
S113067033E343E851E460913A0170913B01809186
S11306803C0190913D012ED26FA778AB89AB9AAB18
S113069060933A0170933B0180933C0190933D0138
S11306A023E333E343E851E460914E0170914F0139
S11306B0809150019091510115D26BAB7CAB8DAB05
S11306C09EAB60934E0170934F01809350019093C1
S11306D0510123E333E343E851E46091460170910F
S11306E047018091480190914901FCD16FAB78AFEB
S11306F089AF9AAF60934601709347018093480194
S11307009093490140904A0150904B0160904C01F4
S113071070904D018090420190904301A09044015B
S1130720B09045018091360190913701A091380134
S1130730B09139018FA398A7A9A7BAA7A5019401DD
S1130740BC01CD017CD16BAF7CAF8DAF9EAF2FA12F
S113075038A549A55AA5C301B20171D16FA378A7E1
S113076089A79AA7A3019201C501B40168D12B01FD
S11307703C012AE037ED43EA5BE36FA578A989A938
S11307809AA9D2D220E030E044E353E4CDD226E566
S11307903EE049E450E4A6D12F8D38A149A15AA1E5
S11307A0DBD026E636E646E65FE3BED26F8F78A35B
S11307B089A39AA32AE037ED43EA5BE36BA97CA9FA
S11307C08DA99EA9B1D220E030E044E353E4ACD239
S11307D026E53EE049E450E485D12BA13CA14DA19E
S11307E05EA1BAD026E636E646E65FE39DD26BA369
S11307F07CA38DA39EA32AE037ED43EA5BE36FA9B4
S113080078AD89AD9AAD90D220E030E044E353E472
S11308108BD226E53EE049E450E464D12BA53CA507
S11308204DA55EA599D026E636E646E65FE37CD282
S11308304B015C0120E030E044E353E46BAD7CAD5C
S11308408DAD9EAD71D226E53EE049E450E44AD137
S113085020ED3CEC4CEC5DE367D22F8D38A149A12F
S11308605AA17AD06F8F78A389A39AA320E030E0AD
S113087044E353E46FA178A589A59AA555D226E54A
S11308803EE049E450E42ED120ED3CEC4CEC5DE339
S11308904BD22BA13CA14DA15EA15ED06BA37CA346
S11308A08DA39EA320E030E044E353E4C301B201EE
S11308B03BD226E53EE049E450E414D120ED3CEC83
S11308C04CEC5DE331D2A501940146D06BA77CA723
S11308D08DA79EA7810122E043E06F8D78A189A1B5
S11308E09AA1AAD23F922F92DF92CF92FF92EF92D7
S11308F0C2D2C70129DE8AE023DE22E043E06BA1F5
S11309007CA18DA19EA198D23F922F92A2E1B1E049
S1130910BF93AF93FF92EF92AED2C70115DE8AE088
S11309200FDE22E043E06BA57CA58DA59EA584D2B5
S11309303F922F9283E291E09F938F93FF92EF92E5
S11309409AD2C70101DE8AE0FBDD0FB6F894DEBF60
S11309500FBECDBF31CE5058BB27AA270ED0A3C19E
S113096094D130F099D120F031F49F3F11F41EF46A
S113097064C10EF4E095E7FB5AC1E92FA5D180F3D9
S1130980BA17620773078407950718F071F49EF588
S1130990BDC10EF4E0950B2EBA2FA02D0B01B901A9
S11309A090010C01CA01A0011124FF27591B99F0E1
S11309B0593F50F4503E68F11A16F040A22F232FED
S11309C0342F4427585FF3CF469537952795A7953D
S11309D0F0405395C9F77EF41F16BA0B620B730BE4
S11309E0840BBAF09150A1F0FF0FBB1F661F771F55
S11309F0881FC2F70EC0BA0F621F731F841F48F40A
S1130A00879577956795B795F7959E3F08F0B3CF8F
S1130A109395880F08F09927EE0F97958795089579
S1130A2034D158F080E891E009F49EEF35D128F0F4
S1130A3040E851E059F45EEF09C0FFC067C1E92FF7
S1130A40E07842D168F3092E052AC1F32617370747
S1130A504807590738F00E2E07F8E02569F0E0251D
S1130A60E0640AC0EF6307F8009407FADB01B901F8
S1130A709D01DC01CA01AD01EF9343D014D10AD02A
S1130A805F91552331F02BED3FE049E450FD49ECF3
S1130A9063CF0895DF93DD27B92FBF7740E85FE385
S1130AA01616170648075B0710F4D92F36D19F9303
S1130AB08F937F936F939BD1ECE8F0E0C1D0F3D098
S1130AC02F913F914F915F913BD1DD2349F0905895
S1130AD0A2EA2AED3FE049EC5FE3D0785D274DDFE1
S1130AE0DF91E1C00CD0DFC0D7D040F0CED030F0E1
S1130AF021F45F3F19F09BC0511109C19EC0E4D09D
S1130B0098F39923C9F35523B1F3951B550BBB27D0
S1130B10AA2762177307840738F09F5F5F4F220F7D
S1130B20331F441FAA1FA9F333D00E2E3AF0E0E876
S1130B3030D091505040E695001CCAF729D0FE2FC2
S1130B4027D0660F771F881FBB1F26173707480754
S1130B50AB07B0E809F0BB0B802DBF01FF2793580A
S1130B605F4F2AF09E3F510568F061C0D0C05F3FDF
S1130B70ECF3983EDCF3869577956795B795F795F2
S1130B809F5FC9F7880F911D9695879597F90895EA
S1130B90E1E0660F771F881FBB1F62177307840786
S1130BA0BA0720F0621B730B840BBA0BEE1F88F795
S1130BB0E0950895E89409C097FB3EF490958095DC
S1130BC0709561957F4F8F4F9F4F9923A9F0F92F0F
S1130BD096E9BB279395F695879577956795B7958D
S1130BE0F111F8CFFAF4BB0F11F460FF1BC06F5F73
S1130BF07F4F8F4F9F4F16C0882311F096E911C085
S1130C00772321F09EE8872F762F05C0662371F0A5
S1130C1096E8862F70E060E02AF09A95660F771FB9
S1130C20881FDAF7880F9695879597F9089597F9AD
S1130C309F6780E870E060E008959FEF80EC08957E
S1130C40DF93CF931F930F93FF92EF92DF927B0179
S1130C508C01689405C0DA2EEF0172D0FE01E8948D
S1130C60A5912591359145915591AEF3EF0185DE1E
S1130C70FE019701A801DA9479F7DF90EF90FF90D5
S1130C800F911F91CF91DF91089500240A941616B5
S1130C90170618060906089500240A941216130666
S1130CA0140605060895092E0394000C11F48823F4
S1130CB052F0BB0F40F4BF2B11F460FF04C06F5F10
S1130CC07F4F8F4F9F4F089557FD9058440F551FE6
S1130CD059F05F3F71F04795880F97FB991F61F0BA
S1130CE09F3F79F087950895121613061406551F31
S1130CF0F2CF4695F1DF08C0161617061806991F9D
S1130D00F1CF86957105610508940895E894BB2791
S1130D1066277727CB0197F908959B01AC0160E022
S1130D2070E080E89FE3DECE0BD0BDCFAEDF28F0CD
S1130D30B3DF18F0952309F07ACF7FCF1124E7CFE2
S1130D40C3DFA0F3959FD1F3950F50E0551F629F29
S1130D50F001729FBB27F00DB11D639FAA27F00D10
S1130D60B11DAA1F649F6627B00DA11D661F829F37
S1130D702227B00DA11D621F739FB00DA11D621F1C
S1130D80839FA00D611D221F749F3327A00D611D39
S1130D90231F849F600D211D822F762F6A2F11241B
S1130DA09F5750408AF0E1F088234AF0EE0FFF1F6E
S1130DB0BB1F661F771F881F91505040A9F79E3FA5
S1130DC0510570F034CFA3CF5F3FECF3983EDCF3D2
S1130DD0869577956795B795F795E7959F5FC1F7E2
S1130DE0FE2B880F911D9695879597F908959B0181
S1130DF0AC019ACFA1E21A2EAA1BBB1BFD010DC0A8
S1130E00AA1FBB1FEE1FFF1FA217B307E407F507B6
S1130E1020F0A21BB30BE40BF50B661F771F881F92
S1130E20991F1A9469F760957095809590959B0128
S1130E30AC01BD01CF010895EF920F931F93CF939F
S1130E40DF93E80147FD02C034E001C034E1042E21
S1130E50000C550B57FF03C0519541955109E32EE2
S1130E60022F242FAE0132D2CE01DF91CF911F91F8
S1130E700F91EF9008950F931F93CF93DF93CDB706
S1130E80DEB72E970FB6F894DEBF0FBECDBF0D8927
S1130E901E8986E08C831A8309838FEF9FE79E83E4
S1130EA08D83AE01475E5F4F6F89788DCE010196C9
S1130EB010D0EF81F885E00FF11F10822E960FB647
S1130EC0F894DEBF0FBECDBFDF91CF911F910F917C
S1130ED008952F923F924F925F926F927F928F92DA
S1130EE09F92AF92BF92CF92DF92EF92FF920F93B5
S1130EF01F93CF93DF93CDB7DEB72B970FB6F8943C
S1130F00DEBF0FBECDBF6C017B018A01FC011782DD
S1130F101682838181FFBFC1CE0101963C01F60197
S1130F209381F70193FD859193FF81917F0188233C
S1130F3009F4ADC1853239F493FD859193FF819114
S1130F407F01853221F4B60190E024D4E8CF912CBE
S1130F50212C312CFFE1F315D8F08B3279F038F4E1
S1130F60803279F08332A1F4232D20611DC08D32AB
S1130F7061F0803369F4232D216016C0832D8260D3
S1130F80382EE32DE4603E2E2AC0F32DF8601DC0F8
S1130F9037FC2DC020ED280F2A3040F08E32B9F4F2
S1130FA036FC75C1232D2064322E19C036FE06C0CE
S1130FB08AE0989E200D1124922E11C0EAE02E9E04
S1130FC0200D1124222EF32DF0623F2E08C08C3602
S1130FD021F4832D8068382E02C0883641F4F7014D
S1130FE093FD859193FF81917F018111B3CF982F58
S1130FF09F7D9554933028F40C5F1F4F9FE3998392
S11310000DC0833631F0833771F0833509F055C054
S113101020C0F801808189830E5F1F4F8824839448
S1131020912C530112C02801F2E04F0E511CF8011B
S1131030A080B18036FE03C0692D70E002C06FEF5E
S11310407FEFC5019CD34C018201F32DFF773F2E26
S113105015C0280122E0420E511CF801A080B18085
S113106036FE03C0692D70E002C06FEF7FEFC5014B
S11310707BD34C01F32DF0683F2E820133FC19C061
S1131080822D90E088169906A0F4B60180E290E0E3
S113109081D32A94F5CFF50137FC859137FE8191F0
S11310A05F01B60190E076D321102A9421E0821AE0
S11310B091088114910479F7E1C0843611F08936DE
S11310C039F5F80137FE07C060817181828193810F
S11310D00C5F1F4F08C060817181072E000C880BC4
S11310E0990B0E5F1F4FF32DFF763F2E97FF09C01C
S11310F090958095709561957F4F8F4F9F4FF068C5
S11311003F2E2AE030E0A30181D3882E861844C004
S1131110853731F4232D2F7EB22E2AE030E025C00E
S1131120932D997FB92E8F36C1F018F4883579F054
S1131130AEC0803719F0883721F0A9C0E92FE061EB
S1131140BE2EB4FE0DC0FB2DF460BF2E09C034FECC
S11311500AC0292F2660B22E06C028E030E005C060
S113116020E130E002C020E132E0F801B7FE07C020
S113117060817181828193810C5F1F4F06C0608101
S1131180718180E090E00E5F1F4FA3013FD3882E52
S11311908618FB2DFF773F2E36FE0DC0232D2E7FA4
S11311A0A22E891458F434FE0BC032FC09C0832DDE
S11311B08E7EA82E05C0B82CA32C03C0B82C01C069
S11311C0B92CA4FE0FC0FE01E80DF11D808180330F
S11311D021F49A2D997EA92E09C0A2FE06C0B394CB
S11311E0B39404C08A2D867809F0B394A3FC10C08C
S11311F0A0FE06C0B21480F4280C922C9B180DC0DB
S1131200B21458F4B60180E290E0C4D2B394F8CF9B
S1131210B21418F42B1802C0982C212CA4FE0FC071
S1131220B60180E390E0B6D2A2FE16C0A1FC03C0D2
S113123088E790E002C088E590E0B6010CC08A2DF2
S1131240867851F0A1FE02C08BE201C080E2A7FCC7
S11312508DE2B60190E09ED2891430F4B60180E3A9
S113126090E098D29A94F8CF8A94F301E80DF11D96
S11312708081B60190E08ED28110F6CF222009F44D
S11312804ECEB60180E290E085D22A94F7CFF601E3
S11312908681978102C08FEF9FEF2B960FB6F8944B
S11312A0DEBF0FBECDBFDF91CF911F910F91FF9095
S11312B0EF90DF90CF90BF90AF909F908F907F90F2
S11312C06F905F904F903F902F9008958F929F92D0
S11312D0AF92BF92CF92DF92EF92FF920F931F9340
S11312E0CF93DF93CDB7DEB729970FB6F894DEBF5F
S11312F00FBECDBF6A01122FB02E2BE3201720F0B2
S1131300FF24F394F00E02C02CE3F22E0F2D27E0FD
S1131310AE014F5F5F4F50D1BC014981842F89706A
S1131320813031F0E1FC06C0E0FE06C090E205C069
S11313309DE203C09BE201C090E05E2D507143FF2B
S11313403CC0911102C083E001C084E0811718F40D
S1131350212F281B01C020E051110BC0F601822F60
S113136030E2882319F031938150FBCFC20ED11C97
S113137020E0992329F0D6019C93F60131966F0160
S1131380C6010396E2FE0AC03EE4D6013C9341E462
S113139011964C93119712963C9306C03EE6F601C3
S11313A0308341E641833283FC01322F40E2332310
S11313B009F442C041933150FACF42FF44C0911125
S11313C002C083E001C084E0811718F4212F281B98
S11313D001C020E051110BC0F601822F30E28823B6
S11313E019F031938150FBCFC20ED11C20E0992318
S11313F029F0D6019C93F60131966F01C60103963C
S1131400E2FE0BC039E4D6013C933EE411963C93D2
S1131410119736E412963C9307C039E6F6013083FF
S11314203EE6318336E63283FC01322F40E2332339
S113143019F041933150FBCFFC01E20FF11D1082F2
S11314408EEF9FEFA6C021E030E0911102C020E0B2
S113145030E0161617061CF4FB01319602C0E1E0D9
S1131460F0E02E0F3F1FBB2021F0EB2DF0E0319672
S113147002C0E0E0F0E02E0F3F1FE12FF0E02E1756
S11314803F071CF4121B212F01C020E08E2D887110
S113149059F4F601822F30E2882319F031938150F8
S11314A0FBCFC20ED11C20E0992329F0D6019C93D6
S11314B0F60131966F0151110BC0F601822F90E3B2
S11314C0882319F091938150FBCFC20ED11C20E0E8
S11314D00F2D060F9A81342F307144FF03C09133CE
S11314E009F40150101624F4093018F008E001C082
S11314F001E0AB0177FF02C040E050E0FB01E41BD8
S1131500F50BA1E0B0E0AC0FBD1FEA0FFB1F8EE2AC
S1131510A82E4B01801A91080B2D10E0119501950E
S113152011094F3FBFEF5B0721F4D601AC9211962E
S11315306D01641775072CF08416950614F48181E7
S113154001C080E3415051093196D60111967D01C5
S11315504017510724F0D6018C936701E2CF64173A
S1131560750739F4963320F4953319F4311101C019
S113157081E3F6018083F701822F90E2882319F03A
S113158091938150FBCFF701E20FF11D108280E0AF
S113159090E029960FB6F894DEBF0FBECDBFDF9161
S11315A0CF911F910F91FF90EF90DF90CF90BF905C
S11315B0AF909F908F900895283008F027E033274C
S11315C0DA01990F311D87FD91600096610571055F
S11315D039F432602E5F3D9330E32A95E1F70895A4
S11315E09F3F30F080387105610509F03C5F3C5F36
S11315F03D93913008F08068911DDF93CF931F9342
S11316000F93FF92EF92192F987F9695E92F969555
S11316109695E90FFF27EC5EFE4F99273327EE24BA
S1131620FF24A701E70105900894079428F4360FD6
S1131630E71EF81E491F511D660F771F881F991F4B
S11316400694A1F70590079428F4E70EF81E491FA5
S1131650561FC11D770F881F991F661F0694A1F797
S11316600590079428F4F80E491F561FC71FD11D73
S1131670880F991F661F771F0694A1F7059007949A
S113168020F4490F561FC71FD81F990F661F771FD5
S1131690881F0694A9F784911095177041F0D69588
S11316A0C79557954795F794E7941A95C1F7EAEBD0
S11316B0F0E0689415901591359165919591059098
S11316C07FE27395E118F10A430B560BC90BD0095D
S11316D0C0F7E10CF11E431F561FC91FD01D7EF435
S11316E0703311F48A95E6CFE894015030F0080F76
S11316F00AF40027021708F4202F2395022F7A33C7
S113170028F079E37D932A95E9F710C07D932A9513
S113171089F6069497956795379517951794E11868
S1131720F10A430B560BC90BD00998F023957E910F
S113173073957A3308F070E37C932013B8F77E91A5
S113174070617D9330F0839571E37D9370E32A9506
S1131750E1F71124EF90FF900F911F91CF91DF914A
S1131760992787FD90950895FC010590615070407C
S11317700110D8F7809590958E0F9F1F0895FC0156
S11317806150704001900110D8F7809590958E0FAC
S11317909F1F08950F931F93CF93DF93FB01238122
S11317A021FD03C08FEF9FEF2CC022FF16C046819E
S11317B05781248135814217530744F4A081B181B4
S11317C09D012F5F3F4F318320838C932681378186
S11317D02F5F3F4F3783268314C08B01EC01FB013D
S11317E00084F185E02D0995892BE1F6D801169640
S11317F08D919C911797019617969C938E931697AB
S1131800CE01DF91CF911F910F910895FA01AA277C
S1131810283051F1203181F1E8946F936E7F6E5F2F
S11318207F4F8F4F9F4FAF4FB1E03ED0B4E03CD0DD
S1131830670F781F891F9A1FA11D680F791F8A1FC0
S1131840911DA11D6A0F711D811D911DA11D20D027
S113185009F468943F912AE0269F11243019305DE1
S11318603193DEF6CF010895462F4770405D4193D2
S1131870B3E00FD0C9F7F6CF462F4F70405D4A331F
S113188018F0495D31FD4052419302D0A9F7EACFE7
S1131890B4E0A6959795879577956795BA95C9F716
S11318A000976105710508959B01AC010A2E069409
S11318B05795479537952795BA95C9F7620F731FC2
S10F18C0841F951FA01D0895F894FFCF0D
S11318CC204178203D20257320202020202020201A
S11318DC2000204179203D20257320202020202029
S11318EC20200020417A203D202573202020202018
S10918FC20202020000062
S9030000FC
