:1000000045C0000060C000005EC000005CC0000091
:100010005AC0000058C0000056C0000054C0000084
:1000200052C0000050C000004EC000004CC0000094
:100030004AC0000048C0000046C0000044C00000A4
:1000400042C0000040C000003EC000003CC00000B4
:100050003AC0000038C0000036C0000034C00000C4
:1000600032C0000030C000002EC000002CC00000D4
:100070002AC0000028C0000026C0000024C00000E4
:1000800022C0000020C000001EC0000011241FBEBE
:10009000CFEFD0E1DEBFCDBF11E0A0E0B1E0E0EFF7
:1000A000F2E000E00BBF02C007900D92AA31B10749
:1000B000D9F721E0AAE1B1E001C01D92AB36B20749
:1000C000E1F7BDD013C19CCF1BB828E92AB926E8B7
:1000D000209395009093900089B908955D9BFECF81
:1000E0008CB90895CF93DF93EC018881882329F0A0
:1000F0002196F4DF89918111FCCFDF91CF91089592
:10010000CF93DF93EC018881882329F02196E6DFE5
:1001100089918111FCCF8DE0E1DF8AE0DFDFDF91A3
:10012000CF910895FB01423049F46AE070E0A8D015
:10013000605D6083805D818312820895433071F435
:1001400064E670E09DD0605D60836AE070E098D006
:10015000605D6183805D828313820895443091F4F1
:1001600068EE73E08DD0605D608364E670E088D0F7
:10017000605D61836AE070E083D0605D6283805D72
:10018000838314820895B89AC098B998C19A089543
:10019000C09800C0C09A83E08A95F1F70000C0982B
:1001A000089510921F0110921E01B19BFECFB19BCA
:1001B0000FC0000080911E0190911F010196909345
:1001C0001F0180931E01B19B03C080329E4488F3BF
:1001D00080911E0190911F010895DADFE2DF9C01FA
:1001E000ABEABAEA60D09695879508956AE070E028
:1001F00047D0CB0170931B0160931A0143E067E67F
:1002000071E090DF87E691E06DDF80E091E06ADFEA
:100210008DE064DF8AE062DF80911A0190911B011A
:100220000D9764F483E1E3E0F1E0A4E3B1E0019031
:100230000D928A95E1F784E391E054CF08952FE37E
:100240008DE093E0215080409040E1F700C0000035
:1002500086E191E055DF8B98939A95DF839B03C0ED
:1002600083E390E031DFB9DF90931D0180931C019F
:10027000BDDF87EA91E60197F1F700C00000F3CFF8
:1002800097FB072E16F4009406D077FD08D01AD0FD
:1002900007FC05D03EF4909581959F4F0895709589
:1002A00061957F4F0895A29FB001B39FC001A39FA6
:1002B000700D811D1124911DB29F700D811D11249F
:1002C000911D0895AA1BBB1B51E107C0AA1FBB1FAC
:1002D000A617B70710F0A61BB70B881F991F5A95D2
:1002E000A9F780959095BC01CD010895F894FFCFB2
:1002F000636D004F42535441434C4520444554459F
:0A030000435445440A004F4B00002F
:00000001FF
