:1000000045C000004BC0000049C0000047C00000D0
:1000100045C0000043C0000041C000005CC00000BB
:100020003DC000003BC0000039C0000037C00000E8
:1000300035C0000033C0000031C000002FC00000F8
:100040002DC000002BC0000029C0000027C0000008
:1000500025C0000023C0000021C000001FC0000018
:100060001DC000001BC0000019C0000017C0000028
:1000700015C0000013C0000011C000000FC0000038
:100080000DC000000BC0000009C0000011241FBEFD
:10009000CFEFD0E1DEBFCDBF02D042C0B1CF1698C6
:1000A000B99AB89A1E9A8AB78F7D8ABF8AB780613B
:1000B0008ABF89B7806489BF789491E088B3892723
:1000C00088BB2FE33DE083E0215030408040E1F7E2
:1000D00000C00000F3CF1F920F920FB60F921124B1
:1000E0002F938F939F93C0982FE38DE093E021503F
:1000F00080409040E1F700C00000C19A2FE38DE0FE
:1001000093E0215080409040E1F700C00000C1988A
:100110009F918F912F910F900FBE0F901F90189568
:04012000F894FFCF81
:00000001FF
